{
  "contractName": "HelloWorld",
  "abi": [
    {
      "constant": true,
      "inputs": [],
      "name": "sayHello",
      "outputs": [
        {
          "name": "",
          "type": "uint256"
        }
      ],
      "payable": false,
      "stateMutability": "pure",
      "type": "function"
    }
  ],
  "bytecode": "0x6080604052348015600f57600080fd5b50607e8061001e6000396000f3fe6080604052348015600f57600080fd5b506004361060285760003560e01c8063ef5fb05b14602d575b600080fd5b60336049565b6040518082815260200191505060405180910390f35b6000602c90509056fea165627a7a7230582020ec63b00109a5e495740c3ed96fa56e562b92bb115ed2007656febb17302e600029",
  "source": "pragma solidity ^0.5.1;\n\ncontract HelloWorld {\n    function sayHello() public pure returns (uint){\n        return 44;\n    }\n}\n",
  "sourcePath": "/home/ruben/ws/eth-playground/truffle/contracts/HelloWorld.sol",
  "compiler": {
    "name": "solc",
    "version": "0.5.8+commit.23d335f2.Emscripten.clang"
  },
  "schemaVersion": "3.0.11",
  "updatedAt": "2019-07-25T06:34:21.190Z",
  "devdoc": {
    "methods": {}
  },
  "userdoc": {
    "methods": {}
  }
}